:20000000F7F90098722F6003122F001812100002122DB4C200087300E40AB4F900011218E1
:200020000002121800F01201B4660080820212020307E6620305E604B33BF0930307E65367
:200040002F00034B07E04C0307CDB04C9050571211CE40001212C0F061F05DF091B374F09B
:2000600093B4F900481218CE120D0081120E0E80FFE4180081120ECE120D1EB4F90001124B
:200080001800441218CE1CB3F6F093B504B3F6F093B0FCCE130703058002E40BB120E58894
:2000A00000021CB3F6F02803058003E404B0DCF02803058001E404B31DF028030BE40803F4
:2000C00004E404BBC0F0280304E606B508BB48F0D5B50DBB48DCE350B47BF028030AE40A13
:2000E0000309E4060001130AB6AB0304E4040309E604B508FB48B504B514FB48B51ABBA8AF
:20010000B5210006B52800101C00601C00801C003F1CB6B000031305CE130A00321309C00D
:20012000B52C0006BC620307E606B33B0002F2AC030A50FCE229B5311103CE91110100184F
:2001400051031102008041011501021C05B535B9FBE742B53DB531B550B56BB571F29503C9
:200160000A8004E602F23300211C0080B535B9FBE723B53DB531B550031992150318931120
:20018000020592150102931102031BB57B031AB57FB57BB585031DB57B031CB57FB57BB577
:2001A00085031FB57B031EB57FB57B010393510213230541011324B5311102CE91150018C0
:2001C00051021104008045120E0104B591B57103239011040324911105001451041104CE7C
:2001E000410511052F0321490403224905E0A6B504B9BC00FE532070031104500C1105CEA3
:200200004080B59A132C0104901104CE9115001051041105008045B59A11040E1501041393
:200220002A05132BB56B000553231323CE43241324F29500281C00801C00211C00801CB91B
:200240002311048001E64EB53115CE911103001855110500804103120E0105B591B5710367
:200260000A50F7E204B56BF2950104E60E8002E424030A8009E41EB2B7E41A01048002E4B3
:200280000B0328CD132800FF43291329CE1CB5B3CE1305F2AC0304E408B504B514BB48F239
:2002A000A5B508BB48DCE202B47B0001120B00FABB9BB5A6020BC0B52C0005BC62CE11036E
:2002C0000103901101CE911102001851011500804102110405120D0104120E0E11010E1127
:2002E000029211040101B5AAB5AA93152F0101490011010102490411022F03234901032438
:200300004902E2040001F3120103CC110350FCE1AFCE120B00FBBB9BB5A6020BC0BA58E48C
:200320000C032D8002E404BB2EF374F33B0304E406B504B514FB48B508FB4803058003E474
:2003400002B6A5BB2E03058002E421B504B5B300141CBB7A00201CB3D6BB7400201CB3D689
:2003600000141CBB7A00201CB3D6BB74CE13050005130BC0CE13071C00F2B528B66BCE1287
:200380000600071CB3D600E012060307E604CE1CF5B3B521CE1C00021C0090B5281C00D0F6
:2003A0001C00FF1CB5EDE404CE1CF5B300021305CE130A1320C00304E408B504B514BB487A
:2003C000F3C6B508BB48DCE202B47BB4660307E6030001C0CEC0B52C01FE13090309E61259
:2003E000B4660304E606B508BB48F3DCB50DBB48F3DCB5A6C4C0B52C1CB51ABBA801FEE4DC
:20040000170004B52800701C00021C001DB5280010B528BC6E15F45101FE8001E417000450
:200420001CB50400C41CB5040076B528001DB528BC6E15F451002A1C00801C0004B52800BA
:200440007F1CB50403281C03291C0090B528B84E1505E6040001130501FE132D05120BC404
:20046000B5A6C4020BC0DCE0113C030BE603CD130B0309E603CD1309B47BC0B52C1CB4DD4A
:20048000150304E4130307E43605E63313060001130400051308F4BF03048001E41B030673
:2004A00085E605CE1304F4BF0308CD1308E4100306130700021304F4BF05E403CE1304C4C9
:2004C000F5A600C0120100FF1202CE12030005130BCE13280002132900E01CFB37000272AC
:2004E00002E4030001C000047202E4030003C0020292E2030002C0CEC0CE121700801216C6
:20050000CE1226C000011CC0CE1C1C1CC0CE1C1C00071CC0CE1C00071CC000781C003F1CB1
:20052000C000B61C00031CC01CCE1CC002091CC8C0032090C01C002A1C00801CC003205031
:200540000C1104CE4080120E0104120D032C1EC01102CE9115001051021104008045120EB7
:200560000104120D032A1E032B1EC0030ACC130AC00320CC132070031320C0921101C093CB
:2005800011030101C00103935102110205410115C0120D03211E03221EC011020105120DD0
:1305A0000102120E0EC0C41209C09315010492110405C09F
:2005B30002091CC8CE12130210703F121001FEE624000F7216800FE604C700F5E800201274
:2005D30018032F8216E40603308217E6080001121800021218C41209C4C002091CC801FEDA
:2005F30080FFE61401F61C01F71C01FE1CC700B721E405CEC700F65D023070EF123001FDEC
:20061300123601FB121701FA121601F8132F01F9133001FC1331CE12260001121800021239
:200633001801FC92E00A021060C01210C700F64F0210703F1210021360041213008012257E
:200653000213604212130001132E120BC4120900F7C700BB9B020BC002091CC801FCC700D9
:20067300B6960080123601FC622B122B01FD122002306010123001FE60011213C41209C450
:20069300C4C4C00080120E0064120DCE1E020DE5FAC0CE12141213C000831214C002091CD9
:2006B300C801FE122301FD123601FC122000801225022D700F122DCE122E00EF722B61FB1C
:2006D300122B01F980FFE61401F71C01F81C01F91CC700B721E40BCEC700F713023070EF5A
:2006F300123001FAE60E00471213022D6001122DC700F71100C71213022D70FE122D0001E3
:20071300120BC4120900F8C700BB9B020BC002091CC80007C700BC620001132E022D700F1D
:20073300122DCE122E0080122502136043121300801236CE152F0549FEE233032E8225E4CE
:200753002201FC61FDE7F4C700F76BC700B76201FC121101FD1212C0C700B75EE7DDCEC7EE
:2007730000F7E80225132E05CC15C700F748021370FD1213023070EF1230CE1101110211B5
:200793000315CE120D0082120ECE11040E11050E80801106010151051101010241061102AC
:2007B300CE41031103CE45150104CC1104E5DD00808103110300FF8102110500FF810311EC
:2007D30006010570F01105000F722D6105122D0106122E0001120B00F9C700BB9BC41209D7
:2007F300C4C4C4020BC00202122E00161215CE12071208120B120C1C1C1C1C1C1C1C1CE54B
:20081300F6022E1300CE122E000612150000120BE619003A120D0080120E0039120700806A
:2008330012080E1C020BCD120BE5F700391207120900801208120AC700F00202091CC81CA7
:200853001C01F5C700B69601FE121701FD1216CE122601FB132F01FC133001F81331001041
:200873001218004012250210703F12100040121301FA122201F9122101F892E02A00481231
:20089300180020121800807218E605CEC700F913CE1CC700BD4B00011CC700BD4B01F76050
:2008B3001A1214C700F8FF01F5120D01F6120E0E121B0E121C000251F515CE41F61101050B
:2008D300120D0101120E0E121A008812180020121800C8121800807218E605CEC700F91306
:2008F30001F7607A121401F7603A1214002012180224E7FC0214600112140002132E000101
:20091300120BC4C4C4120900F6C700BB9B020BC002091CC81C032E8225E67F0001121803EA
:200933002ECB70F090906004121800201218032E15C700ADB3132E032F8216E41903308229
:2009530017E41301FC120E01FB120D032F1E03301ECEC700F9AF000F7216E416059090901A
:20097300621312130001121800021218021370E71213032E8225E5A301FE120E01FD120D46
:2009930002311E02321E01FC120E01FB120D02161E02171E0002C700F9AF0001120BC4C4E5
:2009B3001209C4C4C4C4020BC002091CC81C032EC700ADB31501FE8001E40605C700ADB31E
:2009D30015032E85E61C0001121805CB70F09090600412180020121805C700ADB315C700DC
:2009F300F9D4C4C41209C4C002091CC81C032E8225E405CEC700FA4B032ECC132E8004E4A4
:200A1300040001132E033192E21E000251FD15CE41FE120E05120D021A1E01FE120E01FDAA
:200A3300120D021B1E021C1E01FC120E01FB120D02311E02321E0001120BC4C41209C4C4E9
:200A5300C4C4020BC002091CC81C032E8225E6C00331EC1D0238E60E0001123800F852366F
:200A73001236C700FA8403328236E6050236CC1236007F7331158001E43A032E8002E4291B
:200A9300004812180020121800807218E40C03308217E40B032F8216E405CEC700FB25CE9C
:200AB3001CC700BD4BC700FB1900011CC700BD4BC700FB19058002E427032E8002E40ACE95
:200AD3001CC700BBD8C700FAE300011CC700BBD82F02164B2F02174B30E02BCEC700FB255D
:200AF300032ECB70F09090600812180020121800807218E40C03308217E40B032F8216E428
:1F0B130005CEC700FB250225132E0002C700FB250001120BC4C41209020BC0CE1214C076
:040DB3000102030135
:200B3200CE12053CC002091CC801FE120600031205C41209C4C002091CC801FCE604C700A2
:200B5200BB3201FD120401FE1203C700BB6F01FCE60400031205C41209C4C4C4C0008612F9
:200B720015C0CE120F1214C002091CC8001F1223000F72376050123701FE6001120F02142E
:090B920060031214C41209C4C06E
:200DB700000810182028303840485058606870788494A4B4C4D4E4F404142434445464749C
:200DD7008CACCCEC0C2C4C6C8CACCCEC0C2C4C6C9CDC1C5C9CDC1C5C9CDC1C5C9CDC1C5C7C
:200DF700BC3CBC3CBC3CBC3CBC3CBC3CBC3CBC3CFCFCFCFCFCFCFCFCFCFCFCFCFCFCFCFC5C
:200E17007C7C7C7C7C7C7C7C7C7C7C7C7C7C7C7C7C7C7C7C7C7C7C7C7C7C7C7C7C7C7C7C3B
:200E370000F8F0E8E0D8D0C8C0B8B0A8A09890887C6C5C4C3C2C1C0CFCECDCCCBCAC9C8C1B
:200E570074543414F4D4B49474543414F4D4B4946424E4A46424E4A46424E4A46424E4A4FB
:200E770044C444C444C444C444C444C444C444C404040404040404040404040404040404DB
:200E97008484848484848484848484848484848484848484848484848484848484848484BB
:200EB700000000000000000000000000000000000000000000000000010101010101010113
:200ED70001010101020202020202020203030303030304040404050505050606060607078B
:200EF70007080809090A0A0B0B0C0C0D0D0E0E0F0F101112131415161718191A1B1C1D1EC3
:200F170020222426282A2C2E30323436383A3C3E4145494D5155595D6165696D7175797DDA
:200F370000FFFFFFFFFFFFFFFFFFFFFFFFFFFFFFFFFFFFFFFFFFFFFFFEFEFEFEFEFEFEFEC1
:200F5700FEFEFEFEFDFDFDFDFDFDFDFDFCFCFCFCFCFCFBFBFBFBFAFAFAFAF9F9F9F9F8F80A
:200F7700F8F7F7F6F6F5F5F4F4F3F3F2F2F1F1F0F0EFEEEDECEBEAE9E8E7E6E5E4E3E2E192
:200F9700DFDDDBD9D7D5D3D1CFCDCBC9C7C5C3C1BEBAB6B2AEAAA6A29E9A96928E8A86823A
:200B9B00E60A52071207020840FF1208C002091CC801FE12230050123701FD12361332C4AA
:200BBB001209C4C4C0CE120112131223122BCE120300041215CE121500411215C002091CED
:200BDB00C801FEE60BCE120D0083120EC700FBF2CE120D0082120EC700BC100338CB70F076
:200BFB001E03361E00F073381E03371E020DE5E7C41209C4C0020D1334020E13350333E44E
:200C1B000800481218002012180081120E0333120D0E1336020DE4080048121800201218F1
:200C3B000081120E0E1337020DE40800481218002012180081120E0E1338020D1333033463
:070C5B00120D0335120EC05B
:200C6200E60952071207CE42081208C002091CC81C01F7C700B69601FE121701FD1216CEED
:200C8200122601FB132F01FC133001F8133100101218004012250210703F12100040121366
:200CA20001FA122201F9122101F8707F158001E42A004812180020121800807218E605CECB
:200CC200C700FD3CCE1CC700BD4B00011CC700BD4B01F7601A1214C700FD2C058002E42951
:200CE200CE13331CC700BBD800011CC700BBD82F02164B2F02174B30E005CEC700FD3C01E8
:200D0200F7601A1214C700FD2C008812180020121800C8121800807218E605CEC700FD3C99
:200D220001F7603A1214002012180224E7FC0214600112140002132E0001120BC4C4120905
:200D420000F8C700BB9B020BC002091CC81C1C1C1C01FEE60C0080120D0081120EC700FD5B
:200D62006ACE120D0081120E0615020D901101020E9111020101120D01026080120E05C709
:200D820000ADB71E05C700AEB71E020E921103020D931501037003110305120D0103608080
:110DA200120E007F720DE5C0C4C4C4C4C41209C4C00A
:00000001FF
